:100000000C94FF040C9446050C9446050C9446058C
:100010000C9446050C9446050C9446050C94460534
:100020000C9446050C9446050C94DE2E0C94B22FCD
:100030000C9430260C9446050C9446050C94460509
:100040000C9446050C9446050C9446050C94460504
:100050000C9446050C947B260C9446050C9446059E
:100060000C9446050C9446050C9446050C944605E4
:100070000C9446050C9446050C9446050C944605D4
:100080000C9446050C9446050C9446050C944605C4
:100090000C9422190C9446050C9446050C944605C4
:1000A0000C9446050C9446050C944605165C1E00FF
:1000B0001F00200021002200230000002B0014005C
:1000C0001A000800150017000000000039000400A5
:1000D0001600070009000A0000000000E10000000F
:1000E0001D001B000600190005000000E000E300F1
:1000F000E2000000015100002C00000000000000A0
:1001000000000000000000000000000024002500A6
:10011000260027002D002E004C002A001C0018008D
:100120000C00120013002F00300031000B000D00F6
:100130000E000F0033003400AA0028001100100048
:10014000360037004C003800E500520001512C0009
:100150004F00AC00AE00AB005000510000000000AA
:100160000000000000000000A600A90035023A00CF
:100170003B003C003D003E003F000000C25CC35C11
:100180000100520001000100000000000100010018
:10019000500051004F00010000000000010000006D
:1001A0000100010001000100010000003502010012
:1001B000010000000100000001000000000000003C
:1001C00000000000000000000000000040004100AE
:1001D00042004300440045004C002A000100010099
:1001E0000100010001000100010001000100010007
:1001F00001000100010001000100010001000100F7
:1002000001000100010001000100010001000100E6
:1002100001000100010001000100010000000000D8
:1002200000000000000000004C0001004445425561
:10023000473A2064697361626C65642E0A00444524
:100240004255473A20656E61626C65642E0A000A69
:100250000025303862003A200025303258000A72FA
:100260002F632030313233343536370A00726762FB
:100270006C6967687420616E696D6174696F6E2066
:100280007469636B207265706F727420746F207371
:100290006C6176650A007267626C696768742074C5
:1002A000696D65722064697361626C652E0A007203
:1002B00067626C696768742074696D657220656E29
:1002C00061626C65642E0A007267626C69676874AB
:1002D0002073657420687376205B4E4F45455052FD
:1002E0004F4D5D3A2025752C25752C25750A007219
:1002F00067626C6967687420736574206873762020
:100300005B454550524F4D5D3A2025752C25752C87
:1003100025750A007267626C69676874207261698A
:100320006E626F7720736574206873763A20256457
:100330002C25642C25642C25750A007267626C6973
:100340006768742064697361626C65205B4E4F4519
:100350004550524F4D5D3A207267626C6967687410
:100360005F636F6E6669672E656E61626C65203DC6
:100370002025750A007267626C6967687420646979
:100380007361626C65205B454550524F4D5D3A206C
:100390007267626C696768745F636F6E6669672E07
:1003A000656E61626C65203D2025750A007267628A
:1003B0006C6967687420656E61626C65205B454599
:1003C00050524F4D5D3A207267626C696768745F86
:1003D000636F6E6669672E656E61626C65203D2095
:1003E00025750A007267626C6967687420746F67AC
:1003F000676C65205B454550524F4D5D3A207267F2
:10040000626C696768745F636F6E6669672E656E9C
:1004100061626C65203D2025750A007267626C6917
:10042000676874206D6F6465205B4E4F4545505280
:100430004F4D5D3A2025750A007267626C696768E6
:1004400074206D6F6465205B454550524F4D5D3A99
:100450002025750A007267626C696768745F696E4F
:100460006974207267626C696768745F636F6E6637
:1004700069672E6D6F6465203D20302E20577269AC
:1004800074652064656661756C742076616C756551
:100490007320746F20454550524F4D2E0A007267ED
:1004A000626C696768745F696E6974206565636F03
:1004B0006E666967206973206E6F7420656E616275
:1004C0006C65642E0A007267626C696768745F69A4
:1004D0006E6974207374617274210A007267626CB1
:1004E000696768745F696E69742063616C6C6564C8
:1004F0002E0A007267626C696768745F636F6E666C
:1005000069672E7370656564203D2025640A00725A
:1005100067626C696768745F636F6E6669672E7681
:10052000616C203D2025640A007267626C6967680F
:10053000745F636F6E6669672E736174203D20255A
:10054000640A007267626C696768745F636F6E66E5
:1005500069672E687565203D2025640A007267680A
:100560006C696768745F636F6E6669672E6D6F6430
:1005700065203D2025640A007267626C69676874B3
:100580005F636F6E6669672E656E61626C65203DA4
:100590002025640A007267626C696768745F636F24
:1005A0006E66696720454550524F4D3A0A00321930
:1005B0000A00047F3F1F643214643214783C1E1E0C
:1005C000140A052223252628292A2C2D2F303233E0
:1005D0003536383A3B3D3E4042434547494A4C4E0A
:1005E0005051535557595A5C5E6062646668696B36
:1005F0006D6F71737577797B7D7F81838587898A3C
:100600008C8E90929496989A9C9E9FA1A3A5A7A841
:10061000AAACAEAFB1B3B4B6B8B9BBBCBEBFC1C271
:10062000C3C5C6C7C9CACBCCCDCED0D1D2D2D3D404
:10063000D5D6D7D7D8D9D9DADADBDBDBDCDCDCDC22
:10064000DCDDDDDDDDDCDCDCDCDCDBDBDBDADAD9F0
:10065000D9D8D7D7D6D5D4D3D2D2D1D0CECDCCCB72
:10066000CAC9C7C6C5C3C2C1BFBEBCBBB9B8B6B490
:10067000B3B1AFAEACAAA8A7A5A3A19F9E9C9A9820
:10068000969492908E8C8A89878583817F7D7B79F1
:10069000777573716F6D6B6968666462605E5C5AD2
:1006A0005957555351504E4C4A4947454342403E95
:1006B0003D3B3A3836353332302F2D2C2A29282627
:1006C000252322FFAA7F55400001010101010101FC
:1006D00001010202020202020202020303030303F7
:1006E00003030304040404040404050505050506C6
:1006F0000606060607070707070808080809090984
:10070000090A0A0A0B0B0B0C0C0C0D0D0D0E0E0E2C
:100710000F0F0F10101111111212131314141515BD
:1007200016161717181819191A1A1B1B1C1D1D1E2F
:100730001E1F202021222223242425262627282983
:10074000292A2B2C2D2D2E2F3031323233343536B1
:100750003738393A3B3C3D3E3F40414243444546B1
:100760004748494A4C4D4E4F50515354555658598D
:100770005A5B5D5E5F616264656668696B6C6D6F34
:100780007072737577787A7B7D7E808283858788A7
:100790008A8C8E8F91939596989A9C9EA0A2A3A5E1
:1007A000A7A9ABADAFB1B3B5B7BABCBEC0C2C4C6E2
:1007B000C9CBCDCFD1D4D6D8DBDDDFE2E4E7E9EB9E
:1007C000EEF0F3F5F8FAFDFF0A002530325820006C
:1007D0006B6579626F6172645F7265706F72743A93
:1007E00020000A0025303258006B6579626F617213
:1007F000645F7365745F6C65643A2000290A0025A4
:1008000075002F002575005D280025640020002557
:100810006400200025640020002564007C00253051
:100820003258006D6F7573656B6579205B62746E0D
:100830007C782079207620685D287265702F61634E
:100840006C293A205B005B735D004B6579626F61D8
:1008500072642073746172742E0A005B575D005BD2
:10086000535D005B525D005B445D005B435D0004D3
:10087000033000000022035100750065006600721D
:100880000065006E0063007900200052006500766C
:10089000002E002000310000000E034B00650065B3
:1008A00000620069006F0000000403090409025B94
:1008B00000030100A0FA090400000103010100097E
:1008C00021110100012240000705810308000A09E7
:1008D000040100010300000009211101000122812F
:1008E000000705820320000A090402000203000039
:1008F00000092111010001222200070583032000C5
:100900000107050303200001120110010000000887
:1009100010CB57120001010203010631FF0974A137
:10092000010975150026FF009520750881020976DA
:10093000150026FF00952075089102C005010902E7
:10094000A10185020901A100050919012905150068
:100950002501950575018102950175038101050148
:10096000093009311581257F9502750881060938FE
:100970001581257F950175088106050C0A38021539
:1009800081257F950175088106C0C005010980A1F8
:1009900001850319012AB700150126B700950175D5
:1009A000108100C0050C0901A101850419012AA0CC
:1009B00002150126A002950175108100C0050109EC
:1009C00006A101050719E029E7150025019508751D
:1009D0000181029501750881010507190029FF159C
:1009E0000026FF00950675088100050819012905F4
:1009F000950575019102950175039101C0001124BF
:100A00001FBECFEFDAE0DEBFCDBF04B603FE27C0C6
:100A100080918C0390918D03A0918E03B0918F03F0
:100A20008730904BA740B04BD1F410928C031092BA
:100A30008D0310928E0310928F0314BE84B7877FAC
:100A400084BF0FB6F894A895809160008861809368
:100A50006000109260000FBEE0E0F8E3099511E03D
:100A6000A0E0B1E0ECEFF5E602C005900D92A63EE5
:100A7000B107D9F723E0A6EEB1E001C01D92AC3872
:100A8000B207E1F70E94132C0C94C0320C940000C2
:100A9000FF93EF93E091E601F091E701309709F0C1
:100AA0000995EF91FF910895FC018591803011F037
:100AB000EFDFFBCF0895FF27E0E230E247FF0CC0F5
:100AC000419597FF09C0EDE26095709580959095EE
:100AD000611D711D811D911D27FF02C0219530E30D
:100AE00050E2AA27660F771F881F991FAA1FA41715
:100AF00010F0A41B63955A95A9F7AA3008F0A95FD6
:100B0000A05DAF93F395611571058105910541F7DE
:100B1000ED3211F4EF93F395F21718F43F93F39538
:100B2000FBCF8F91B5DFFA95E1F70895E991F9913F
:100B30008591803021F0853219F0AADFF9CF089530
:100B400020E0E89455915532C1F3503311F4689484
:100B500055915A3348F4505390F3220F022E220F2E
:100B6000220F200D250FF4CF0EF421958991999134
:100B7000533619F3533729F1533559F1BC018827FE
:100B80009927E8945C3621F489919991689455915C
:100B9000543639F446EF7EF077FF0DC08FEF9FEFAC
:100BA0000AC055374AE039F0583540E121F0523655
:100BB00042E009F00895FF93EF937DDFEF91FF91FD
:100BC000B7CFFF93EF93FC0181918030B9F360DFE1
:100BD000FBCFFF93EF9368DFF1CFDF93CF93CDB7D8
:100BE000DEB72596A3DFCF91DF9108950E94D4123E
:100BF0004FEF6FEF80E00E94150F8BE00E94D11243
:100C000060E070E0CB010E941A250C94262581E05B
:100C1000089581E008950C94090608950C940D063A
:100C20001F93CF93DF9300D000D00F92CDB7DEB7E4
:100C300049835A836B833091660289819A8131118D
:100C40001DC06623B9F02223A9F00E948B23182F20
:100C5000682F89819A810E94362369817A81812F48
:100C60000F900F900F900F900F90DF91CF911F91E9
:100C70000C94DC060E946323182FEFCF0E948B2375
:100C800069817A81EDCFFC01262F408151816281FB
:100C9000738184810C941006CF93DF93EC0160E0A4
:100CA0000E944306BE01DF91CF910C940E060E9474
:100CB000EC24811102C00E9482250C94E9080C9456
:100CC000EC0808950E949D1E0E9461062FEF84E3A8
:100CD0009CE0215080409040E1F700C000000C945F
:100CE0009F260F931F93CF93DF93EC0161E00E9447
:100CF00043068C01BE010E940B06882341F1BE0110
:100D0000C8010E942816882311F1BE01C8010E9463
:100D10007A168823E1F0BE01C8010E949D1788233E
:100D2000B1F0BE01C8010E940215882381F08A81BA
:100D3000882341F101308CE5180779F00E3D8CE5F0
:100D40001807E9F001151C45E9F40E94620680E0ED
:100D5000DF91CF911F910F9108959091F002892F0B
:100D60008E7F90FF81608093F00280FF05C08EE34C
:100D700092E00E945405EBCF8CE292E0FACF0E9401
:100D80008225E5CFCE01DF91CF911F910F910C9479
:100D9000070608950C94C90681E008950C94CC06CA
:100DA000CF93C82F0E94CA068C2FCF910C94CE06E9
:100DB00090E080E008950895E72FF0E09CE0899F9F
:100DC000E00DF11D112483E0EE0FFF1F8A95E1F77E
:100DD000E60FF11DEE0FFF1FE455FF4F8591949133
:100DE0000895FC01EE0FFF1FE15BFD4F859194918B
:100DF0000895CF93DF930E94DC060E940E08EC0159
:100E0000811520E5920708F042C0811530E4930770
:100E100008F0BDC0883E910528F5803E910508F098
:100E20009DC0883A910588F4853A910508F08FC0F5
:100E30008130910509F492C0009709F48FC004979E
:100E400008F08CC0D0E0C0E089C08F3B910508F469
:100E500089C0805C9109C03CD105A0F30E94F106D5
:100E6000EC017CC08115904250F4C11581E0D80797
:100E700008F074C0C03FD10528F3D0656FC0C1151C
:100E800090E3D90708F079C0CE019F70E7CF8115B4
:100E900025E5920758F5811534E5930708F0A6C0BB
:100EA000811542E5940750F4C11581E5D80708F48F
:100EB00071C0DC2FCC27C16FD06A50C0982F969597
:100EC00096959E0123703327C115D34508F07FC046
:100ED000C1E0D0E002C0CC0FDD1F2A95E2F720E28E
:100EE000929FC0011124C82BD92B6FC0C11589E571
:100EF000D807A8F4C11598E5D90708F07CC0C1153A
:100F000026E5D20708F09ECF8C2F0E94A508C82F97
:100F1000D0E0DC2FCC27CC27DF71D0621FC0C115F9
:100F20003AE5D30708F46CC0CE0190568115904283
:100F300008F088CF8D2F8F710E94A50890E0982F20
:100F4000882788279F719C012C2BE901E6CFC55A81
:100F5000D0E0C958DE4FC881D0E0D064CE01DF9127
:100F6000CF910895C85AD0E0CC0FDD1FC75BDE4F8C
:100F70000990D881C02DD464F1CFCE019927D3FF39
:100F800003C0EC01D86CEACFEC01D06CE7CFDF7086
:100F9000D06AE4CFCE01E4E096958795EA95E1F733
:100FA00083702C2F26952695237090E2299F90011F
:100FB0001124382B8C2F8370C1E0D0E002C0CC0FFD
:100FC000DD1F8A95E2F7C22BD32BDC68C7CFC1E0C7
:100FD000D0E002C0CC0FDD1F2A95E2F730E2939FEC
:100FE000C0011124C82BD92BDA68B8CFD82FCC2751
:100FF000C46FD06AB3CFDC2FCC27C06FD06AAECF1E
:101000008C2F8F700E94A50834E0D695C7953A952D
:10101000E1F7CF709C2FEC01D069A0CF8238910509
:10102000B1F1B0F48133910509F475C048F4893207
:10103000910509F469C08A32910509F473C00895D5
:101040008533910509F459C08933910501F108955B
:10105000833E9105A9F138F4803E9105F9F0823E76
:10106000910549F10895863E9105A9F1873E9105C4
:10107000C9F1843E910519F520917E0321FF1FC01F
:1010800080917D0384FD14C087EE90E00895209147
:101090007D032370A1F080EE90E0089520917D0300
:1010A00020FD47C030917E0330FF09C024FF44C0BB
:1010B00090E080E004C020917D0322FDF7CF0895E9
:1010C00020917D0322FD3BC030917E0330FDE3CFB4
:1010D00024FFF5CFEDCF20917D0323FFF0CF24FD3A
:1010E000E7CFD2CF20917D0323FD2CC030917E032A
:1010F00031FFEECF84EE90E0089520917D0325FF2F
:10110000DECF89E290E0089520917D0325FFD7CFBF
:1011100085E390E0089520917D0326FFD0CF8AE2F9
:1011200090E0089520917D0326FFC9CF81E390E0F0
:10113000089589E390E0089583EE90E0089582EEAB
:1011400090E0089586EE90E0089590917D0392FFDF
:1011500006C0282F28712830F9F4877F846093FF18
:1011600006C0282F28712831F1F4877E84612091F0
:101170007E0320FF06C0382F38713830D9F4877FBE
:10118000816021FF06C0282F28712831D1F4877E85
:10119000816194FD877E0895282F24712430F9F60B
:1011A0008B7F8860DCCF282F2471243101F78B7E60
:1011B0008861DDCF382F3171313019F78E7F88602B
:1011C000E0CF282F2171213121F78E7E8861E1CF78
:1011D00008950C94E80808950C94EB08E82FF0E0CB
:1011E000E85EFC4F80810895CF92DF92EF92FF92EC
:1011F0000F931F93CF93DF938EE592E00E945405E7
:1012000088E1E82E83E0F82ED0E0C0E099E5C92E11
:1012100092E0D92E01E512E0DF93CF93DF92CF92D7
:101220000E94ED0586E592E00E945405F701819148
:101230007F010E94D4241F928F931F930F930E94CB
:10124000ED058FE492E00E94540521968DB79EB77C
:1012500008960FB6F8949EBF0FBE8DBFCC30D10557
:10126000D9F6DF91CF911F910F91FF90EF90DF9012
:10127000CF90089580EA8A95F1F7089508951F9315
:10128000CF93DF93CDB7DEB764970FB6F894DEBF88
:101290000FBECDBF0E940A0B80911801811130C092
:1012A000FE01379686E0DF011D928A95E9F784EF0B
:1012B000898384E98A8387E98B8386EC8C8384E342
:1012C0008D8385E38E833697ACE0B1E0CE010D9639
:1012D00021912D938E179F07D9F728E0E1E4F1E0E3
:1012E000DE011D9601900D922A95E1F7FC01A4E024
:1012F000B1E0CE01459621912D938E179F07D9F726
:101300008091180196E0811190E09093250386E08A
:10131000891B80932403ACE0B1E042E151E061E03D
:1013200070E08D91E82FE295EF70F0E011A18F70E1
:101330009B0101C0220F8A95EAF7922F9095912385
:1013400091A382A1822B82A34A175B0751F7A4E0E5
:10135000B1E04CE051E061E070E08D91E82FE29562
:10136000EF70F0E011A18F709B0101C0220F8A95F0
:10137000EAF7922F9095912391A382A1822B82A3C9
:101380004A175B0751F7ECE0F3E0A8E1B3E088E12E
:1013900093E011921D928E179F07D9F786E00E9465
:1013A000B00A0E94570664960FB6F894DEBF0FBECF
:1013B000CDBFDF91CF911F910C941F0B0E94EE0ABD
:1013C000882309F18091240390E0885E9C4F0E945D
:1013D000260B811115C08091E8018F5F8093E80191
:1013E000863060F0E0912403F0E0E85EFC4F90E08E
:1013F00080E01192019686309105D9F70C945F0632
:101400001092E801FBCF8091250390E0885E9C4F0D
:101410000E945B0B0C943E09BF92CF92DF92EF9239
:10142000FF920F931F93CF93DF93CCE0D1E08CE03A
:10143000C82E83E0D82E92E1E92E91E0F92EB12C4E
:1014400001E010E08881E82FE295EF70F0E091A1D3
:101450008F70980101C0220F8A95EAF7892F822B9D
:1014600081A39991E92FE295EF70F0E022A19F709E
:10147000A80102C0440F551F9A95E2F7CA01809552
:10148000822382A30E943A09E4E0F1E050E040E0C8
:1014900020E03191A32FA295AF70B0E090968C918F
:1014A00090E03F7002C0959587953A95E2F780FDF0
:1014B00053C0802F042E01C0880F0A94EAF7282B0E
:1014C0004F5F5F4F4830510521F7DE019E91E92FB4
:1014D000E295EF70F0E031A19F70A80102C0440FC7
:1014E000551F9A95E2F7CA018095832381A38C91B9
:1014F000E82FE295EF70F0E092A18F70A80101C093
:10150000440F8A95EAF7892F842B82A3F601808104
:10151000281721F1208381E0B82AFFEFCF1ADF0AD4
:10152000EC16FD0609F08ECF6091250370E0685E31
:101530007C4F2B2D46E08CE093E00E94B10A0E9484
:10154000DE098B2DDF91CF911F910F91FF90EF90CE
:10155000DF90CF90BF90089580E0B1CF80E0DCCFE6
:101560000895FF920F931F93CF93DF93F82E092FC7
:10157000162FD72FC42F222349F081E08093EB014F
:101580000E9460269093EA018093E9018091EB012B
:101590008823A1F08091E9019091EA010E946C26D4
:1015A000069760F0EF2DF02FA12FBD2FCE0FDF2F6C
:1015B000D11DEC17FD0741F41092EB01DF91CF91A3
:1015C0001F910F91FF90089581918D93F2CF5298C2
:1015D0005A9889B182FB882780F908958091EC019F
:1015E000811111C08091D80080618093D8008AE178
:1015F0008A95F1F700C09091D900892F817090FFF2
:1016000082E08093EC0181E09091EC01913009F04F
:1016100080E008950E94E70A8093180180911801E4
:1016200068E0882349F080E00E940D0C0E94EE0AD9
:10163000882321F00C946F0B88E0F6CF08950E9468
:10164000EE0A811102C00C94710B08950F931F9341
:10165000CF93DF93CDB7DEB728970FB6F894DEBFF0
:101660000FBECDBF04E610E026E030E0AC0160E044
:1016700082E30E94CD180E94FD11882381F0CE01E3
:1016800001960E94031228E030E0AE014F5F5F4FE9
:1016900067E082E30E94A01897FF0E94001281E099
:1016A00028960FB6F894DEBF0FBECDBFDF91CF9165
:1016B0001F910F910895FC0196E0ABE5B3E0019016
:1016C0000D929A95E1F780916903882339F060E0E3
:1016D00082E693E00E94D2131092690308950C945D
:1016E000C71782E30C941C19EF92FF920F931F937C
:1016F000CF93DF93EB01E82FD11110C0442321F0E9
:10170000F0E0E853F94FE4916E2F7E2F8E2FDF919A
:10171000CF911F910F91FF90EF9008950D2F10E042
:10172000282F30E0442329F02853394FF901249120
:1017300030E0F6E0CF9FC0011124EFEFF0E0BF01F1
:101740000E946F31AB018C2F90E0880F991FA5E5A7
:10175000A49FB001A59F700D1124861B970B982F95
:10176000990F980FBF01601B710B629FD001639F9F
:10177000B00D729FB00D11248B2F9D9FB0011124CD
:10178000672F7727EF01C61BD70BBE01629FE001D1
:10179000639FD00D729FD00D11247F01E91AF108CB
:1017A000E09EB001E19E700DF09E700D1124672F38
:1017B0007727E61BF70BE29F8001E39F100DF29F56
:1017C000100D1124E12F722F4230510599F048F489
:1017D0004115510569F04130510581F0EB2F8D2FF6
:1017E00007C04430510569F080F046305105B1F72B
:1017F0006E2F8DCFE22F7B2F812FFACFE22F7D2FFF
:10180000F7CFEB2F822F712FF3CF7B2F822FED2F6E
:10181000EFCF41E00C94740B0895ECE1F1E080838C
:1018200061830895CF93DF93762FE901682F842F8A
:101830000E94090C798368838A83DF91CF91089590
:1018400080912603982F9E7F29F481708260809377
:10185000260308958635E8F381708465F8CF88E023
:1018600090E00C946132CF92DF92EF92FF926B0185
:101870007C010E94200CB701A60188E090E0FF9057
:10188000EF90DF90CF900C947F32E6E2F3E083E0BC
:10189000808311828FEF828383831482AAE4B2E073
:1018A00012968C911297836012968C93608171814D
:1018B000828193810C94330C8091F00280FF76C07A
:1018C00085E995E09F938F930E94ED058091F0024A
:1018D0000F900F9080FF6AC08091260381701F9245
:1018E0008F9388E795E09F938F930E94ED058091F9
:1018F000F0020F900F900F900F9080FF57C08091D3
:10190000260386951F928F938DE595E09F938F9385
:101910000E94ED058091F0020F900F900F900F90B4
:1019200080FF44C0809127031F928F9383E495E04A
:101930009F938F930E94ED058091F0020F900F907E
:101940000F900F9080FF32C0809128031F928F93D9
:1019500089E295E09F938F930E94ED058091F002BC
:101960000F900F900F900F9080FF20C0809129035F
:101970001F928F938FE095E09F938F930E94ED05C8
:101980008091F0020F900F900F900F9080FF0EC08B
:1019900080912A031F928F9383EF94E09F938F93FC
:1019A0000E94ED050F900F900F900F900895809179
:1019B000260380FF02C08695089580E008959091E7
:1019C0002A03933018F49F5F90932A03882351F0E1
:1019D0006091260370912703809128039091290339
:1019E0000C94330C089581E00C94DF0C90912A0341
:1019F000992319F0915090932A03882351F0609114
:101A000026037091270380912803909129030C9459
:101A1000330C089581E00C94F60C70E00C94711571
:101A200060911D018091260380FF0AC080911C01F6
:101A300023E0829FC0011124855D9C4F0C940D0D05
:101A400080911E0190911F0123E0829FF0011124DB
:101A5000E55DFC4F891750F71182108212828F5F6B
:101A60003396F8CF9091260390FF14C090911E01F9
:101A700020911F0133E0939FF0011124E55DFC4F9D
:101A8000921710F00C94100D8183608342839F5F46
:101A90003396F6CF0895CF93DF9300D00F92CDB752
:101AA000DEB79091260390FF0AC09E012F5F3F4F43
:101AB0000E94120C4B8169818A810E94320D0F9025
:101AC0000F900F90DF91CF910895CF93DF93EC01AA
:101AD000EC81F0E0ED53FA4F4491E6E2F3E06281ED
:101AE00081810E944B0D8C818F5F8C83DF91CF9120
:101AF0000895CF93DF93EC01E6E2F3E04381628146
:101B00008C810E944B0D8C818F5F8C83DF91CF91F4
:101B100008950F931F93CF93DF9300D00F92CDB70B
:101B2000DEB78C018091ED0181110AC09E012F5F0B
:101B30003F4F4FEF6FEF0E94120C8A818093ED01AF
:101B4000F8016481613069F08091ED0140E0662325
:101B500061F040E0623011F44091ED0180E060E01E
:101B600004C06091ED0140E080E00E94320DF80178
:101B7000848190E0019663E070E00E948331848369
:101B80000F900F900F90DF91CF911F910F910895BB
:101B90004F925F926F927F928F929F92AF92BF927D
:101BA000CF92DF92EF92FF920F931F93CF93DF9329
:101BB00000D00F92CDB7DEB7182FF62E042F722E5D
:101BC0009091260390FF57C0E92FE695AE2FB0E025
:101BD000A658BE4F8C9180934A029E7F923009F0A6
:101BE0005EC09E012F5F3F4F812F0E94120C4B81E0
:101BF00069818A810E94320D80912703811308C078
:101C0000809128038F1104C080912903801729F047
:101C100080914C02826080934C0210932703F092D3
:101C2000280300932903772009F49CC060912603C0
:101C30007091270380912803909129030E94330C0F
:101C40008091F00280FF17C0809129031F928F932B
:101C5000809128031F928F93809127031F928F9367
:101C60008FEE92E09F938F930E94ED050FB6F8944C
:101C7000DEBF0FBECDBF0F900F900F90DF91CF91C1
:101C80001F910F91FF90EF90DF90CF90BF90AF909A
:101C90009F908F907F906F905F904F9008958230CB
:101CA00019F400912903A8CF863019F41091270365
:101CB000A3CF8930D9F3893109F09ECFE9518E2F16
:101CC0008170682E8E2F80958170E82EE695F0E069
:101CD000ED53F94FC590D490412CDD2494E1A92E09
:101CE00093E0B92E60912001461618F00E94100D65
:101CF00083CF842C912C8C9CC0018D9C900D9C9C3E
:101D0000900D112470E00E946F31512E611028C097
:101D1000560E8091F00280FF11C0DF92CF921F9289
:101D2000EF921F925F921F924F92BF92AF920E94CA
:101D3000ED050FB6F894DEBF0FBECDBF20911E019A
:101D4000820E911C9401220F331F280D391D255D31
:101D50003C4F402F6F2D852D0E94120C4394C2CF13
:101D6000561AD7CF8091F00280FF85CF1F920F9334
:101D70001F92FF921F921F9388EC92E073CFE6E2CE
:101D8000F3E09181282F4381628188E0890F0C94D0
:101D9000C80D81E00C94BF0EE6E2F3E09181282F9C
:101DA0004381628188EF890F0C94C80D81E00C9407
:101DB000CC0EE6E2F3E0628121E1620F08F46FEFFE
:101DC000282F438181810C94C80D81E00C94D90E99
:101DD000E6E2F3E0628121E1621B08F460E0282F73
:101DE000438181810C94C80D81E00C94E80EE6E2F9
:101DF000F3E0438121E1420F08F44FEF282F628185
:101E000081810C94C80D81E00C94F70EE6E2F3E0BA
:101E1000438121E1421B08F440E0282F6281818147
:101E20000C94C80D81E00C94060F21E00C94C80DB1
:101E300020E00C94C80DEF92FF921F93CF93DF9395
:101E4000EC0110E0EE24EA94F12C609120011617C9
:101E500070F00E94100D9A818C8190FF27C08F5FD7
:101E60008C83DF91CF911F91FF90EF900895209187
:101E70001E01422F410F5527551FCA019A01220FFB
:101E8000331F280F391F255D3C4F70E0C7010E94AA
:101E90008331962F8C814091290360912803199FEB
:101EA000800D11240E94120C1F5FCFCF8150D8CF1C
:101EB0009F92AF92BF92CF92DF92EF92FF920F93D9
:101EC0001F93CF93DF93EC018A81BB24BA9480FDEA
:101ED00002C0BB24B3948C8181110AC081E0B81286
:101EE00027C08091200181508093EF0181E08C8395
:101EF000A12C80912001A816F0F00E94100D809175
:101F0000EF0191E0B9125DC0811156C080912001AE
:101F100081508093EF011C82DF91CF911F910F912F
:101F2000FF90EF90DF90CF90BF90AF909F9008957B
:101F30001092EF01DBCF00911E01CA2CD12C0C0DA9
:101F40001D2D111DC801880F991F080F191F055D50
:101F50001C4FF80111821082128234E0E32EF12C22
:101F6000912C8091EF01890D813104F18F70082E41
:101F7000000C990BC816D90691F4809129038E9D07
:101F8000A0018F9D500D1124559547955595479566
:101F9000980160912803809127030E94120C9B0CEA
:101FA000F1E0EF1AF108E9F6A394A3CF87FFDFCFA2
:101FB00090912001890FDBCF81508093EF01BC828B
:101FC000ABCF90E001966091200170E00E948331D8
:101FD0008093EF018C83A0CFEF92FF920F931F931A
:101FE000CF93DF93EC018C81811109C081E08C8358
:101FF0001092EE0192E090931B0180931A01809160
:102000001E0190911F0123E0829FF0011124E55DE4
:10201000FC4F891768F110E003E06091200116176A
:1020200068F10E94100D80911A012091EE01280F95
:102030002093EE0190911B01980F90931B011916AC
:1020400054F4022E000C330B409120014150550BEB
:102050002417350734F0819580931A01813009F4F3
:102060001C82DF91CF911F910F91FF90EF90089507
:102070001182108212828F5F3396CBCFE12EF12C2A
:1020800070E0C7010E94833120911E01820F482F0A
:1020900050E02091EE01022E000C330BE216F30605
:1020A000BCF020911B01022E000C330B2E153F05B6
:1020B0007CF0809F90011124255D3C4F40912903C5
:1020C00060912803809127030E94120C1F5FA5CF07
:1020D000FA01EE0FFF1FE40FF51FE55DFC4F1182C3
:1020E00010821282F3CF8F929F92AF92BF92CF92C3
:1020F000DF92EF92FF920F931F93CF93DF93EC0148
:102100004C81042F10E09801D8010E94C7319B0137
:10211000AC010E94DD314B015C01E0E2F0E0E01B2C
:10212000F10BA5E5B0E0AC019B010E94DD316B0134
:102130007C019F01DF010E94BF319B01AC010E9425
:10214000E8319B01AC01280D391D4A1D5B1DC701FB
:10215000B6010E949731F22E822F90E039E23F15AE
:1021600060F143E0249F9001112435952795122FAB
:10217000109500E085E5E82EEF1880912001081702
:1021800058F10E94100D9C8181E0992319F0903242
:1021900019F48FEF8093190180911901890F8C83B5
:1021A000DF91CF911F910F91FF90EF90DF90CF9033
:1021B000BF90AF909F908F90089525E530E0B901D2
:1021C000681B790B9B01220F331F260F371F37FF28
:1021D000CCCF2F5F3F4FC9CF8E2D01FD8F2D20918A
:1021E0001E01622F600F7727771F9B01220F331F7D
:1021F000260F371F255D3C4F412F609128030E9419
:10220000120C0F5FBACF0F931F93CF93DF93EC01A4
:1022100010E000E0909120019017110609F06CF495
:102220000E94100D8C8190E00196817099278C831B
:10223000DF91CF911F910F91089520911E01A80168
:10224000420F511D9A01220F331F240F351F255DA8
:102250003C4F4C81609128038091270396959017FD
:10226000110651F04CF0442349F0409129030E949B
:10227000120C0F5F1F4FCECF4423B9F340E0F7CFCE
:102280008F929F92AF92BF92CF92DF92EF92FF9286
:102290000F931F93CF93DF93FC01B280948081E072
:1022A000848300E015E05BE4A52E88248394EE246B
:1022B000EA94F12C7BE4C72ED12C809120010817E1
:1022C00070F0DF91CF911F910F91FF90EF90DF9011
:1022D000CF90BF90AF909F908F900C94100DC02F17
:1022E000D0E01C9FF0011D9FF00D1124ED50FE4F1A
:1022F00091101CC01382128220911E01CE01820F08
:10230000911D9C01220F331F280F391F255D3C4F63
:102310001C9FF0011D9FF00D1124ED50FE4F4281D6
:10232000618180810E94120C0F5FC7CF238122231D
:1023300079F12150238334818A2D821B311101C010
:10234000822F1C9FF0011D9FF00D1124ED50FE4FB8
:1023500090912903899FC0011124B6010E946F3119
:102360006283211104C0332311F01482A38222E07E
:102370002B1510F21C9FF0011D9FF00D1124ED5044
:10238000FE4F809127038083809128038183B4CFFF
:102390000E943C32823091400CF0AECF82E08B152F
:1023A00030F50E943C32B7010E9483311C9FF0013E
:1023B0001D9FF00D1124ED50FE4F808322E02B1560
:1023C000C8F40E943C32209128032695622F70E0C9
:1023D0000E948331280F1C9FF0011D9FF00D1124D6
:1023E000ED50FE4F21831282A382848285CF80919B
:1023F0002703DCCF20912803EECF80914C02089573
:1024000010924C02089525E0E6E2F3E0DC01019031
:102410000D922A95E1F720914A0230914B024091AA
:102420004C02FC012583368347830895EAE4F2E0F9
:10243000118282818460828308956091260366956B
:1024400070E04BE050E081E291E00E944C32892B39
:1024500019F481E080934B020E946026909344021D
:102460008093430280914C02846080934C0280915F
:10247000F00280FF08C08FEA92E09F938F930E9442
:10248000ED050F900F90089510924B0280914C0231
:10249000846080934C028091F00280FF08C086E93E
:1024A00092E09F938F930E94ED050F900F900895F7
:1024B0009091260390FF59C09170811140C09260A5
:1024C0009093260380914C02816080934C02662396
:1024D000E9F1609126037091270380912803909180
:1024E00029030E94330C8091F00280FF0FC080917D
:1024F000260386951F928F9389E394E09F938F9391
:102500000E94ED050F900F900F900F9060912603A1
:10251000669570E04BE050E081E291E00E944C3221
:10252000892B01F10E94441281E080934602409180
:10253000290360912803809127030C94180F8B3294
:1025400010F09465BDCF880F982BBACF8091F00220
:1025500080FFDCCF8091260386951F928F938BE1BD
:1025600094E0CCCF0E941D12DFCF0895682F909188
:102570002603969581E0890F8B3208F081E00C9458
:10258000581281E00C94B612682F9091260396950C
:102590008FEF890F09F48AE20C94581281E00C94B1
:1025A000C41261E00C9458128091260381608093DC
:1025B00026038091F00280FF0DC01F9281E08F936F
:1025C0008DEA93E09F938F930E94ED050F900F90FB
:1025D0000F900F908091260386950C94D11260E0A5
:1025E0000C94581280914902811165C08091F002CB
:1025F00080FF14C08CED94E09F938F930E94ED05B3
:102600008091F0020F900F9080FF08C086EC94E05C
:102610009F938F930E94ED050F900F900E94EC24E2
:10262000811110C08091F00280FF08C08EE994E013
:102630009F938F930E94ED050F900F900E9482252B
:102640000E94450C0E942F0C609326037093270371
:10265000809328039093290380914C028360809398
:102660004C026E7FC1F48091F00280FF08C085E5C6
:1026700094E09F938F930E94ED050F900F900E941E
:10268000450C0E942F0C60932603709327038093C0
:102690002803909329030E94200C0E945C0C0E9446
:1026A00016128091260380FF03C086950E94EF12C8
:1026B00081E0809349020895809126038E7F809364
:1026C000260360912603709127038091280390913F
:1026D00029030E94330C8091F00280FF0FC080918B
:1026E000260381701F928F9385E793E09F938F93CA
:1026F0000E94ED050F900F900F900F900E944412D2
:1027000080914C02816080934C022FEF80E792E031
:10271000215080409040E1F700C000000C94100D63
:102720008091F00280FF10C0809126038095817017
:102730001F928F9384EE93E09F938F930E94ED05F9
:102740000F900F900F900F908091260380FD0C94B6
:102750005C130C94D412809126038E7F8093260301
:102760008091F00280FF0CC01F921F928BE393E0D8
:102770009F938F930E94ED050F900F900F900F90F5
:102780000E94441280914C02816080934C022FEF92
:1027900080E792E0215080409040E1F700C00000C7
:1027A0000C94100D1F93CF93DF93EC01162F8F81A4
:1027B00080FF0CC0888180FF24C080912603816047
:1027C00080932603888186950E9458128F8181FF0D
:1027D00006C0212F4B816A8189810E94C80D8F819B
:1027E00082FF05C08E81882379F00E941D128F819F
:1027F00083FF03C081E080934602DF91CF911F9158
:1028000008950E94AB13E2CF0E944412F0CFEF92E2
:10281000FF920F931F93CF93DF9380914B028823F6
:1028200009F475C080914A02E0912603E695E81B01
:10283000E0934502823009F071C0F0E0E154FA4FB4
:10284000E491CE2FD0E005E61DE08091460288237A
:1028500089F0109246020E9460269E0120953095D4
:10286000820F931F90934402809343021092480278
:102870001092470280914302909144020E946C267C
:102880008C179D0708F443C08091F201882311F151
:102890001092F2018091F0019091F1010E946C265A
:1028A00080339547B8F00E9460269093F1018093A1
:1028B000F0018091F00280FF08C08DE692E09F93C6
:1028C0008F930E94ED050F900F9080914C028860CD
:1028D00080934C02E0904702F0904802E09143025E
:1028E000F0914402CE0FDF1FD0934402C093430205
:1028F00083E492E0F80109958091470290914802A3
:10290000892B29F4EF2819F081E08093F201DF91FF
:10291000CF911F910F91FF90EF900895863049F469
:10292000F0E0E454FA4FE491CE2FD0E009E71DE047
:102930008CCF893051F4E695F0E0E754FA4FE491FA
:10294000CE2FD0E00BE11FE080CF8F3051F4E69521
:10295000F0E0EA54FA4FE491CE2FD0E008E51FE012
:1029600074CF853149F4F0E0ED54FA4FE491CE2F65
:10297000D0E00CEE1FE069CFC8E2D0E003E710E141
:10298000883109F462CF833239F4E1EBF5E0C59187
:10299000D49109E81DE059CFC4EFD1E003E011E183
:1029A000843209F452CFC0EDD7E00CE01CE0853250
:1029B00009F04BCF8E2F63E00E946331E92FF0E0E6
:1029C000E255FA4FE491CE2FD0E000E411E13DCF83
:1029D000FA01811101C0FB010994CF93DF93C82F45
:1029E000D62F0E94D70C8C1740F00E94D70C8D1761
:1029F00020F4DF91CF910C94C1128C2FDF91CF91F5
:102A00000C94D1121F93CF93DF93EC01FB01128141
:102A1000111110C00E9420248272FE01E25CFC456C
:102A2000E431F10508F05BC0EE53FD4C0C94B93174
:102A30000E949013812FDF91CF911F9108954EEC4A
:102A400052E161EC72E10E94E814F4CF41EC52E1F2
:102A50006EEC72E1F8CF46ED5EE069EC7EE0F3CF1C
:102A600049EC5EE066ED7EE0EECF44EF5EE065EEC1
:102A70007EE0E9CF45EE5EE064EF7EE0E4CF42E148
:102A80005FE063E07FE0DFCF43E05FE062E17FE0B3
:102A9000DACF4AE05DE063EF7CE0D5CF43EF5CE066
:102AA0006AE07DE0D0CF81E00E94D112C3CF65E023
:102AB00082E00E94ED14BECF68E086E0FACF6EE0BF
:102AC00089E0F7CF64E18FE0F4CF67E185E1F1CFF2
:102AD00088E1EACF62E289E1ECCF83E2E5CF11E061
:102AE000A9CF539A4BB1477F5BB15860EFB7F894C9
:102AF0009B01220F331F260F371F280F391F28175E
:102B0000390741F4EFBF8FE594E00197F1F700C07A
:102B100000000895DC016D91CD0178E05BB9000003
:102B200000C067FF4BB9660F000000C000C000C0C6
:102B30004BB900C07A9591F7E2CFAF92BF92CF9296
:102B4000DF92EF92FF920F931F93CF93DF937C015D
:102B50005B01C42FD22FFC0182818823F9F04093BE
:102B60004F020E94602690934E0280934D0280E2B5
:102B70008C0F883008F061C0C77081E001C0880FF9
:102B8000CA95EAF7DF91CF911F910F91FF90EF90D7
:102B9000DF90CF90BF90AF900C94211C10914F020A
:102BA000141340C080914D0290914E020E946C26F9
:102BB0006C01B701C5010E941321C816D90690F512
:102BC000C0E2CD0F1D17B9F080E2810F883040F4CC
:102BD000177081E001C0880F1A95EAF70E94281C3F
:102BE000C83048F481E09D2F977001C0880F9A95F6
:102BF000EAF70E94211C802F0E940E1CC830E8F4C6
:102C0000D77081E001C0880FDA95EAF7DF91CF91A4
:102C10001F910F91FF90EF90DF90CF90BF90AF90FA
:102C20000C94281C80E28C0F883038F4C77081E047
:102C300001C0880FCA95EAF7E9CFDF91CF911F91C4
:102C40000F91FF90EF90DF90CF90BF90AF900895DD
:102C50000F939C01CB01233F4CE5340759F1A8F4B5
:102C6000283DFCE53F0701F1293D4CE53407D1F152
:102C7000273D3C4591F406E221EE41EE67ED7CE50F
:102C80000E949D1580E00F910895253FFCE53F07C8
:102C9000E9F0B0F0263F3C45F9F0FC018281882341
:102CA00039F110924F02EFCF07E225EE45EE68EDC5
:102CB0007CE5E6CF06E221EE40EE63EF7CE5E0CF77
:102CC00007E225EE44EE64EF7CE5DACF06E221EE82
:102CD00042EE65EF7CE5D4CF07E225EE46EE66EFE7
:102CE0007CE5CECF08E221E045EE69ED7CE5C8CF7A
:102CF00081E0C9CFCF93DF93EC01FB018281882370
:102D000009F419C1C230FCE5DF07C0F1C6319CE50A
:102D1000D90730F09E012A5F3C452930310570F516
:102D20000E94FF2490937E0380937D03C031ECE5E5
:102D3000DE0709F4CFC008F05BC0C8308CE5D807C7
:102D400009F4B6C088F5C430ECE5DE0709F4A8C084
:102D5000C0F4C2308CE5D80709F49CC080917D0393
:102D60008260C330DC4509F498C080917D03909166
:102D70007E030E940D250E949D1E80E0DF91CF9171
:102D8000089580917D038061C630ECE5DE0709F48B
:102D900084C080917D038860C730DC4508F47DC025
:102DA00080917D03806279C0CC308CE5D80709F42E
:102DB00089C070F480917D038C60CA30ECE5DE0739
:102DC00009F46BC008F478C080917D038E7F65C0E4
:102DD000CE308CE5D80709F479C080917D038B7FD4
:102DE000CF30DC4508F459C080917D038F7E55C0FB
:102DF000CB3FECE5DE0709F457C030F5C3318CE575
:102E0000D80709F46FC078F4C131ECE5DE0709F4A6
:102E100065C0C231DC4509F0A8CF0E949D1E80919B
:102E20007D038F773AC0C5318CE5D80709F462C0BD
:102E300008F476C080917E038160CA3FDC4509F0CA
:102E400094CF80937E0391CFCF3FFCE5DF0709F459
:102E50004DC088F480917E038D7FCD3F9CE5D907DE
:102E600081F380917E038E7FCE3FDC4550F38091CD
:102E70007E038360E6CFC130FDE5DF0709F459C06A
:102E800008F444C080E0C230DD4509F06ECF0E94F6
:102E900084256BCF80917D03816080937D0365CF16
:102EA00080917D038460F9CF80917E038260C9CFD9
:102EB00080917D038064F1CF0E949D1E80917D03EF
:102EC0008068EBCF80917D038D7FE7CF80917D037C
:102ED000877FE3CF80917D038F7DDFCF80917D035E
:102EE0008F7BDBCF80917D03837FD7CF80917E0363
:102EF0008C7FA7CF80917D0382FB992790F921E0F9
:102F0000922790FB82F990FB83F9C7CF80917E03D3
:102F1000982F909591708E7F892B90FB81F991CF9E
:102F20000E949D1E90917D03892F97FB87F9805801
:102F3000B4CF81E0ACCF81E021CFCF93DF93EB0121
:102F400086319C4511F50E9420249A81992399F09D
:102F50008A7A91E009F490E090935002811109C0BF
:102F600089E20E94FB230E946C2480E0DF91CF91D4
:102F7000089585E3F6CF80915002811104C089E263
:102F80000E940224F0CF85E3FBCF81E0EFCF1092C7
:102F9000B90088E48093B8000895EF92FF920F93F0
:102FA0001F93CF93DF93182FEB011092BC0084EA9C
:102FB0008093BC000E9460267C018091BC0087FF4A
:102FC00027C08091B900887F883029F08091B900AE
:102FD000887F8031D9F51093BB0084E88093BC00D2
:102FE0000E9460268C018091BC0087FF24C0209144
:102FF000B900287F90E080E02831B1F081E090E0D6
:10300000203411F490E080E09195819591090CC0F5
:10301000CF3FDC0791F20E9460268E199F098C1722
:103020009D0758F28EEF9FEFDF91CF911F910F9187
:10303000FF90EF900895CF3FDC07A9F20E94602631
:10304000801B910B8C179D0770F2ECCF8FEF9FEFD9
:10305000EBCF0F931F93CF93DF93EB018093BB00D4
:1030600084E88093BC000E9460268C018091BC00A3
:1030700087FF11C02091B900287F81E090E02832BD
:1030800011F490E080E0919581959109DF91CF91C5
:103090001F910F910895CF3FDC0741F30E946026F6
:1030A000801B910B8C179D0708F38EEF9FEFEECFDF
:1030B0000F931F93CF93DF93EC0184EC8093BC00BC
:1030C0000E9460268C018091BC0087FF08C080911F
:1030D000BB0090E0DF91CF911F910F910895CF3FFA
:1030E000DC0789F30E946026801B910B8C179D07DB
:1030F00050F38EEF9FEFEECF0F931F93CF93DF939D
:10310000EC0184E88093BC000E9460268C018091D1
:10311000BC0087FF08C08091BB0090E0DF91CF9199
:103120001F910F910895CF3FDC0789F30E9460261D
:10313000801B910B8C179D0750F38EEF9FEFEECF06
:10314000CF92DF92EF92FF920F931F93CF93DF9373
:10315000C62F6A017901B8010E94CD1797FD0CC0F6
:10316000B8018C2F0E942918E601EC0CFD1CCE152D
:10317000DF0511F097FF0CC024E92093BC00DF911C
:10318000CF911F910F91FF90EF90DF90CF90089516
:10319000B80189910E942918EACFCF92DF92EF926D
:1031A000FF920F931F93CF93DF93F82EE62EEA0141
:1031B0006901B8010E94CD1797FD15C0B8018E2D89
:1031C0000E94291897FD0FC0B8018F2D81600E94C1
:1031D000CD17F12CE12C21E0C21AD108EC14FD042A
:1031E00000F597FF11C024E92093BC0018161906BA
:1031F00014F490E080E0DF91CF911F910F91FF9048
:10320000EF90DF90CF900895C8010E94581897FD65
:1032100004C0FE01EE0DFF1D80832FEFE21AF20ABB
:10322000DDCF97FDE0CFC8010E947C1897FDDBCF72
:10323000CC0DDD1D8883D7CF8093BA0085EC8093B9
:10324000BC0008951F921FB61F9211248F939F9365
:10325000EF93FF938091B900887F8038C1F038F4F4
:10326000882309F448C0803679F081E022C0883A8A
:1032700011F0883BD1F7E0915202F0E0E55AFC4FA3
:1032800080818093BB0031C010925102EECF8091BB
:103290005102811122C08091BB0080935202809123
:1032A00052028E31C0F01092520280E091E0909371
:1032B00051029091BC008295880F880F807C892BE9
:1032C00085688093BC00FF91EF919F918F911F9033
:1032D0001FBE1F90189581E0E9CFE0915202F0E007
:1032E0008091BB00E55AFC4F8083809152028F5F32
:1032F00080935202BACF1092BC00B7CF909358027D
:10330000809357020895E0915702F0915802309748
:1033100021F00190F081E02D099480E00895EF9272
:10332000FF920F931F93CF93DF938C01E09157028D
:10333000F09158023097C1F10280F381E02D099598
:103340008091F00282FF30C080FF04C080ED97E0E2
:103350000E945405D0E0C0E08AECE82E87E0F82E09
:103360008091F00280FF0EC0F801EC0FFD1F8081FC
:103370001F928F93FF92EF920E94ED050F900F9096
:103380000F900F902196C830D10551F78091F0022F
:1033900080FF0AC088EC97E0DF91CF911F910F91D9
:1033A000FF90EF900C945405DF91CF911F910F91F6
:1033B000FF90EF900895E0915702F09158023097F6
:1033C00039F022E0DC012C930480F581E02D099492
:1033D000089520915502309156022817390771F04F
:1033E0009093560280935502E0915702F091580253
:1033F000309721F00680F781E02D099408952091FF
:103400005302309154022817390771F090935402F7
:1034100080935302E0915702F0915802309721F0C7
:103420000084F185E02D0994089585B7806885BFF3
:1034300085B7806885BF0895089508950C941C1A77
:1034400008950C94201A0E94151A0E941D1A0C94BB
:103450001E1A0C94EE0A0E9457260E943F090E94F1
:10346000B0260E94F2120C94211ACF93C82F80919B
:10347000F00282FF1EC080FF1CC089EE97E00E9410
:1034800054058091F00280FF14C01F92CF9384EE08
:1034900097E09F938F930E94ED058091F0020F902B
:1034A0000F900F900F9080FF04C082EE97E00E9473
:1034B00054058C2FCF910C94D006BF92CF92DF92FF
:1034C000EF92FF920F931F93CF93DF93CDB7DEB7A9
:1034D0002A970FB6F894DEBF0FBECDBF0E940C0A2C
:1034E0000E94291A882309F461C08AE5C82E82E067
:1034F000D82E10E000E0B02E802F0E94EE08E82EBB
:10350000F601F1906F01F81609F44AC08091F002BB
:1035100081FD0E94F4089F2D9E2580E0FF24F394F6
:10352000292F2F21C1F18E83BF82EF2081E009F482
:1035300080E088870E9460268160782F9A8789873B
:103540004E815F8168858A850E94F71AF801E65AE4
:10355000FD4F8081F826F0820E9407140E94DD282A
:103560000E94831990915902891789F10E94831949
:10357000809359022A960FB6F894DEBF0FBECDBFD6
:10358000DF91CF911F910F91FF90EF90DF90CF903F
:10359000BF900C94351A8F5FFF0C883009F0C0CFB4
:1035A0000F5F1F4F0C30110509F0A5CF8FEF8983F6
:1035B0008A831B820E9460268160782F9D838C8382
:1035C00049815A816B818D810E94F71AC5CF2A9655
:1035D0000FB6F894DEBF0FBECDBFDF91CF911F9124
:1035E0000F91FF90EF90DF90CF90BF900895CF9311
:1035F000DF93CDB7DEB72B970FB6F894DEBF0FBEC3
:10360000CDBF4F83588769877A878B871E821D823B
:1036100085E0FE013796DE01119601900D928A95A4
:10362000E1F749815A816B817C818D819E812B9646
:103630000FB6F894DEBF0FBECDBFDF91CF910C94D3
:103640001621FC01808191810C94CD23CF93C82F4A
:10365000882309F48BC08238C1F40E94831981FD4C
:1036600085C089E30E94FB230E946C242FEF81EE2A
:1036700094E0215080409040E1F700C0000089E3D1
:103680000E940224CF910C946C248338A1F40E94F0
:10369000831980FD6BC083E50E94FB230E946C248C
:1036A0002FEF81EE94E0215080409040E1F700C080
:1036B000000083E5E5CF8438A1F40E94831982FDE0
:1036C00055C087E40E94FB230E946C242FEF81EEFB
:1036D00094E0215080409040E1F700C0000087E472
:1036E000CFCF8CEF8C0F813A90F46C2F80912C010E
:1036F00090912D010E949B25882329F08C2F0E94F8
:1037000002240E946C248C2F0E94FB23BBCF80E2FA
:103710008C0F883048F4C77081E001C0880FCA95CB
:10372000EAF70E942324AECFEBE5EC0FE33040F440
:10373000F0E0ED52FE4F808190E0CF910C94E919BA
:10374000E8E5EC0FE73150F4F0E0EE0FFF1FEB552A
:10375000FE4F80819181CF910C94FF19C03F30F0D2
:103760008C2F0E945527CF910C944028CF9108951B
:10377000882309F452C0823871F40E94831981FFB2
:103780004CC089E30E94FB230E946C2489E30E94C1
:1037900002240C946C24833859F40E94831980FF0E
:1037A0003CC083E50E94FB230E946C2483E5EFCF9D
:1037B000843859F40E94831982FF2FC087E40E9445
:1037C000FB230E946C2487E4E2CF9CEF980F913A90
:1037D000F0F290E2980F983050F4877091E001C0B9
:1037E000990F8A95EAF7892F0E942924D2CF9BE569
:1037F000980F933020F490E080E00C94E91998E55C
:10380000980F973120F490E080E00C94FF19803FEE
:1038100020F00E94BD270C9440280895CF93C82F14
:103820000E94261BC93349F42FEF87EE93E0215005
:1038300080409040E1F700C000008C2FCF910C94A5
:10384000B81B882321F00E9423240C946C24089533
:10385000882321F00E9429240C946C240895BF929F
:10386000CF92DF92EF92FF920F931F93CF93DF934C
:103870006C01D62FC72FFC01058102950F701281B4
:1038800011110E9440240E941924E82E882391F0EF
:103890001123D1F08C2F807F803421F080E28D0FB6
:1038A000883090F082E00E94B7240E94192491E0B1
:1038B000E82EE926BC2EB2949FE0B922EB2DF0E071
:1038C000EA52FD4C0C94B931E12CF4CF0C2F0F705F
:1038D000C07F11F00295007F1123A9F0002359F059
:1038E00080E28D0F883010F0D11109C0802F0E9426
:1038F00023240E946C248D2F0E94261B14C0802F2D
:103900000E943324F6CF8D2F0E94B81B002359F05C
:1039100080E28D0F883010F0D1112CC0802F0E94D2
:1039200029240E946C242B2D2850330B2430310580
:1039300020F40E9483190E94D006EE2009F49EC153
:103940000E94152480FD9AC1F60112820E940F2464
:103950000E949A22C6010E945F1E0E940F24DF91DE
:10396000CF911F910F91FF90EF90DF90CF90BF907C
:103970000C94BB22802F0E943924D3CFFC2FFF70E0
:10398000FF2EC07FC03219F0F29480EFF822DD23C1
:1039900069F0D13049F1112391F1002351F1F60181
:1039A000858180FFA8CF8F70858323C0112381F08C
:1039B000011106C00E9453248F290E94211CB3CFFD
:1039C0000130C1F70E9453248F290E945924ABCFA4
:1039D000011106C00E9462248F2D0E94281CA3CFD3
:1039E000013009F4A0CFF6CF112329F0063008F0FA
:1039F0009ACF8F2DE2CF053008F095CFEDCF002381
:103A000059F3D93349F4FFEF27EE33E0F15020406A
:103A10003040E1F700C000008D2F0E94B81B83CF1B
:103A20008C2F86958695837069F0813009F07BCF65
:103A30008D2F9C2F9370111102C090E080E00E94A6
:103A4000FF1971CF8D2F9C2F9370111102C090E040
:103A500080E00E94E91967CF8D2F112329F00E9481
:103A600055270E9440285FCF0E94BD27FACF8C2F98
:103A7000837009F041C0111156CF4D2F42954695E4
:103A80004770440F440F0D2F0F7010E030E020E01E
:103A9000042E04C0000F111F221F331F0A94D2F7F7
:103AA00060E070E0CB01D4FF0FC06FE070E080E019
:103AB00090E004C0660F771F881F991F4A95D2F7C0
:103AC0006095709580959095C695C695C370602B4E
:103AD000712B822B932BC23049F058F4C13019F06E
:103AE0000E944C2220CF0E943A221DCF0E945E22CB
:103AF0001ACF0E94382217CF8695112311F08C2FF0
:103B00008170882309F40FCF4D2F42954695477059
:103B1000440F440F0D2F0F7010E030E020E0042E12
:103B200004C0000F111F221F331F0A94D2F760E058
:103B300070E0CB01D4FF0FC06FE070E080E090E058
:103B400004C0660F771F881F991F4A95D2F76095AA
:103B5000709580959095C695C695C370602B712B16
:103B6000822B932BC23049F058F4C13019F00E94D7
:103B70001123D9CE0E94FF22D6CE0E942323D3CE7A
:103B80000E947422D0CECF70112329F08C2F0E9476
:103B90009A228D2F12CF8D2F0E94281C8C2F0E94CD
:103BA000BB22C1CED23F89F160F4D03FC9F0D13FF2
:103BB00029F1112309F442C001119DCE8C2F8F7180
:103BC00021C0D33F39F1D43FA1F7112369F1CF715F
:103BD0008C2F0E949A2263E08C2F0E94A224A3CEF5
:103BE000112341F0053008F09ECE8C2F8F710E947A
:103BF000DE2299CE063008F096CEF7CF8C2F8F714B
:103C0000112369F20E949A228ECE8C2F8F7111237C
:103C1000C9F3C5CF112329F08C2F8F710E94852203
:103C200082CE0E9480227FCE81E00E94B7240230A3
:103C300008F479CE82E00E94B72475CE002359F0B3
:103C4000D93309F0E9CE8FEF97EEE3E08150904051
:103C5000E040E1F7DFCE8C2F8F71A1CF4C2F4F705A
:103C60006D2FC6010E94D8060E94B0215CCE4C2F59
:103C70004F706D2FC6010E94DB0655CEDF91CF91AC
:103C80001F910F91FF90EF90DF90CF90BF9008951C
:103C90000F931F93CF93DF93EC01688179818A8121
:103CA0000E94D7238C010E9435230E943722B8013D
:103CB000CE01DF91CF911F910F910C942F1CCF93C8
:103CC000DF93EC018B819C81892B29F0888199817C
:103CD00089238F3F59F4DF91CF910895CE010E943F
:103CE000481ECE01DF91CF910C944C06CE010E946C
:103CF00071068111F3CF0E941924882361F38A8110
:103D0000882349F382E0DF91CF910C94B7240E947D
:103D100040240E9450240E946C240E94E9290E94A1
:103D2000402890E080E00E94E91990E080E00C9447
:103D3000FF190E9409240C94871E0E9430240C94C1
:103D4000991EE92FE295EF70E250EE3070F4F0E04A
:103D5000EA51FD4C0C94B931803F19F020F4883EB3
:103D600020F481E00895843FE1F380E00895883EE7
:103D7000C0F3813FD1F7F5CF93FB882780F90895F1
:103D80000E94CD230C94A11ECF93DF9300D000D0CE
:103D90000F92CDB7DEB70F900F900F900F900F904E
:103DA000DF91CF910895CF93DF9300D000D000D062
:103DB000CDB7DEB726960FB6F894DEBF0FBECDBFE7
:103DC000DF91CF9108951F93CF93DF93C091670246
:103DD00016E0809168028C1304C0DF91CF911F918F
:103DE0000895D0E01C9FF0011D9FF00D1124E759AC
:103DF000FD4F4081518162817381848195810E9450
:103E0000D31E2196C770E5CF4091990250919A0236
:103E100060919B0270919C0280919D0290919E0204
:103E20000C94D31E1F93CF93DF9380919E02807FCB
:103E3000A9F480919B02882389F080916702C09148
:103E400068026091990270919A02A0919C02B091CF
:103E50009D02D62FD72316E0C81304C0DF91CF915F
:103E60001F91089590E0109711F0DF3F19F401962B
:103E70008770F2CF189F9001199F300D1124F9011E
:103E8000E759FD4F41814713F2CF40814613EFCFF1
:103E900042814111ECCF438154814A1B5B0B483C6A
:103EA000510528F780919E028F70806180939E0259
:103EB000F901E259FD4F80818F708061808389E92B
:103EC00092E00E945F1EDF91CF911F910C94E31E40
:103ED000AF92BF92CF92DF92EF92FF920F931F9318
:103EE000CF93DF93CDB7DEB761970FB6F894DEBFFF
:103EF0000FBECDBF8C0185E0F801DE011D9601905B
:103F00000D928A95E1F7F80140815181E28089E9BB
:103F1000C82E82E0D82E60919C0270919D0261159E
:103F2000710509F461C19091990220919A02892F3B
:103F300082238F3F09F458C1A380B480F0909B0284
:103F4000F501E61BF70BFF2009F4FCC080919E02EF
:103F5000382F307FE83CF10508F0B2C0311179C04C
:103F6000FE2C251323C0941321C0E1101FC08F70B5
:103F7000806180939E020E94041FC6010E945F1E02
:103F800080919E02F80185838F2D61960FB6F8947B
:103F9000DEBF0FBECDBFDF91CF911F910F91FF907C
:103FA000EF90DF90CF90BF90AF900895AB2829F0AD
:103FB000842F85238F3F09F033C180E0F82FF17003
:103FC000DF2E80FF3CC0809167022091680236E0BE
:103FD000821315C04D875E878D859E850E94CD23F7
:103FE000292F22952F702230F0F0243018F59F7081
:103FF000F1F0F8019581907FD1F4D12C1EC090E0B2
:10400000389FF001399FF00D1124E759FD4F618170
:10401000651306C06081641303C062816E110FC016
:1040200001968770D5CF9F7011F0882331F3805EA1
:10403000883018F3C8010E945F1EFD2CA5CFEE202A
:1040400009F4A2CF80919E02816080939E02F12CA0
:104050009BCF251306C0941304C0F801EE2009F489
:104060008DC04D875E878D859E850E94C01E8823EA
:1040700019F1EE2009F180919E02803270F02091BA
:10408000990230919A0238872F831986BB86AA86B7
:104090008C87CE0107960E945F1E86E0F801A9E991
:1040A000B2E001900D928A95E1F70E94121F0E94E2
:1040B000041FFF24F39468CFC8010E945F1EF9CF4C
:1040C000311113C07A2DB98AA88A6E2D89890E9470
:1040D000C41E89E992E00E945F1E86E0F6011192FB
:1040E0008A95E9F70E94041FB2CF25130FC09413DD
:1040F0000DC0E1100BC0F8018583C8010E945F1E4E
:1041000086E0F60111928A95E9F73ECF4D875E87EA
:104110008D859E850E94C01E882371F2EE2061F27B
:1041200080919E02803208F4B8CF2091990230919C
:104130009A023A8329831B82BD82AC828E83CE0190
:104140000196A9CFE83CF10508F041C0FE2CEE2015
:1041500009F4B2CF25132AC0941328C080919E027F
:1041600080FD1BC0982F907FC1F0F8018583903FA0
:1041700031F0982F907F905F8F70892B8583C801D5
:104180000E945F1E86E0F801A9E9B2E001900D925D
:104190008A95E1F70E94041FF7CE86E0F801A9E9AD
:1041A000B2E001900D928A95E1F7EECE4D875E87E1
:1041B0008D859E850E94C01E81116FCF80919E02C9
:1041C000816080939E02C8010E945F1EDDCE7A2D21
:1041D000B98AA88A6E2D89890E94C41E86E0F601DC
:1041E00011928A95E9F7D6CFEE2009F465CF4D8775
:1041F0005E878D859E850E94C01EF82E882309F457
:104200005BCF86E0F801A9E9B2E001900D928A95B2
:10421000E1F789E992E00E94211B0E94121FBACFA8
:1042200081E08E25CBCE88EC90E008951F93CF934C
:10423000DF93CDB7DEB72C970FB6F894DEBF0FBE75
:10424000CDBF4F83588769877A878B879C87CE013C
:1042500007960E94681F882369F08A859B85892BB1
:1042600039F04F815885842F85238F3F09F071C025
:1042700016E05FC086E0FE013796DE0111960190E0
:104280000D928A95E1F78A859B85892B89F38F8129
:10429000988589238F3F61F32091680230E0C9013E
:1042A000019687709927409167024817190671F4A3
:1042B0000E949D1E109268021092670286E0E9E952
:1042C000F2E0DF011D928A95E9F7D2CF96E0929F46
:1042D000D001939FB00D1124A759BD4FFE01319617
:1042E00001900D929A95E1F7809368020E94E31E77
:1042F000BFCF819FC001112487599D4F0E94681F25
:104300008823E9F0E09167021E9FF0011124E7592C
:10431000FD4F4081518162817381848195810E942A
:10432000D31E8091670290E0019687709927809351
:10433000670280916702909168028913DACF2C9608
:104340000FB6F894DEBF0FBECDBFDF91CF911F91A6
:10435000089569857A858B859C850E94D31E88CFB8
:10436000EF92FF920F931F93CF93DF938C01892BD2
:1043700081F0F12CEE24E394E8012196F801849178
:10438000843770F4843008F05FC08130B1F082303F
:10439000A1F1DF91CF911F910F91FF90EF900895C0
:1043A000853709F44CC008F43DC09CE7980F90375E
:1043B00080F78F770E94B81B49C00E5F1F4FFE0128
:1043C000849190E2980F983060F48770FE2D01C0C0
:1043D000FF0F8A95EAF78F2F0E9443240E946C24D6
:1043E00002C00E94261B8F2D815030F2EFE9FFE0C2
:1043F0003197F1F700C00000F7CF0E5F1F4FFE01AD
:10440000849190E2980F983050F48770FE2D01C08F
:10441000FF0F8A95EAF78F2F0E944924DFCF0E9471
:10442000B81BE1CF0E5F1F4FFE01C491C150D8F2FF
:104430008FE99FE00197F1F700C00000F7CF0E5F12
:104440001F4FFE01F490CFCF0E94261B8E01CBCFD1
:1044500008950C9428220E9429226093DF02709311
:10446000E0028093E1029093E2020C94871E08958B
:104470000C942B220F931F930091DF021091E00206
:104480002091E1023091E202602B712B822B932B61
:104490001F910F910C942B220F931F930091DF0219
:1044A0001091E0022091E1023091E2026023712339
:1044B000822393231F910F910C942B220F931F9310
:1044C0000091DF021091E0022091E1023091E202BE
:1044D00060277127822793271F910F910C942B221D
:1044E0000C9428220C9470220E9472226093DB02AA
:1044F0007093DC028093DD029093DE020C94871EA1
:1045000060E070E0CB010C9474220F931F9341E0A4
:1045100050E060E070E08A019B0104C0000F111FB1
:10452000221F331F8A95D2F7C901B8011F910F913D
:104530000C9474220F931F9341E050E060E070E010
:1045400004C0440F551F661F771F8A95D2F78091CC
:10455000DB029091DC02A091DD02B091DE028A01C3
:104560009B01082B192B2A2B3B2BC901B8011F914A
:104570000F910C9474220F931F9341E050E060E080
:1045800070E004C0440F551F661F771F8A95D2F74D
:10459000CB01BA0160957095809590950091DB02F2
:1045A0001091DC022091DD023091DE026023712344
:1045B000822393231F910F910C9474220F931F93C6
:1045C00041E050E060E070E004C0440F551F661FFA
:1045D000771F8A95D2F78091DB029091DC02A0913F
:1045E000DD02B091DE028A019B01082719272A27E4
:1045F0003B27C901B8011F910F910C9474220F93AE
:104600001F930091DB021091DC022091DD023091BA
:10461000DE02602B712B822B932B1F910F910C9438
:1046200074220F931F930091DB021091DC02209102
:10463000DD023091DE0260237123822393231F91D8
:104640000F910C9474220F931F930091DB02109131
:10465000DC022091DD023091DE0260277127822783
:1046600093271F910F910C9474220895990F990F1D
:10467000990F890F982F977041E001C0440F9A95C8
:10468000EAF786958695869595E0899FF001112435
:10469000E156FD4F30E020E070E05191DF011197CD
:1046A000CB01022E02C0969587950A94E2F781709D
:1046B00081958527842385278C932F5F3F4F253055
:1046C000310559F70895990F990F990F890F982F70
:1046D000977086958695869525E0829FF001112436
:1046E000E156FD4F50E040E080E0219130E0092E9E
:1046F00002C0369527950A94E2F721703327042EDD
:1047000001C0220F0A94EAF7822B4F5F5F4F4530BA
:10471000510559F70895BF92CF92DF92EF92FF9221
:104720000F931F93CF93DF938C01C090DB02D09047
:10473000DC02E090DD02F090DE028091DF029091D9
:10474000E002A091E102B091E202C82AD92AEA2A45
:10475000FB2ACFE1D0E0BC2ED701C6010C2E04C04D
:10476000B695A795979587950A94D2F780FD0EC0C8
:10477000219788F7B12C8B2DDF91CF911F910F914D
:10478000FF90EF90DF90CF90BF900895B8018C2FED
:104790000E94F906019761F3EECFCF93DF93EC010E
:1047A0000E948B23BE01DF91CF910C94F9061F93D9
:1047B000CF93DF93EB0190916602992331F0CB0107
:1047C000DF91CF911F910C94CD23882379F0CB01F9
:1047D0000E948B23182F682FCE010E943623BE0122
:1047E000812FDF91CF911F910C94F906CB010E948C
:1047F0006323182FF4CF682F80912C0190912D0105
:104800000C94D125682F80912C0190912D010C944E
:10481000D32580912C0190912D010C94D525809168
:10482000E30285958595859508958091E3028770CB
:1048300008959091E302977081E009F480E0089573
:104840008091EF0208959091EF02892B8093EF02FF
:10485000089580959091EF0298239093EF02089528
:104860001092EF0208959091EE02892B8093EE0250
:10487000089580959091EE0298239093EE0208950A
:104880001092EE0208959091ED02892B8093ED0233
:10489000089580959091ED0298239093ED020895EC
:1048A0001092ED0208958091E402089508950C9409
:1048B00056249091E402981721F08093E4020C941E
:1048C000572408958091E402882329F01092E4028D
:1048D00080E00C9457240895E0912C01F0912D0173
:1048E0008091EF028083E0912C01F0912D01808175
:1048F0009091EE02892B8083E0912C01F0912D01A3
:1049000080819091ED02892B80839091E40299231C
:1049100081F0E0912C01F0912D018081892B808321
:1049200080912C0190912D010E94892581110E9476
:10493000622480912C0190912D010C948F1908957F
:104940000C949F2498E0899F90011124622B60931E
:10495000E3020E949A228091E302859585958595D0
:104960000C94A0241092E30280E00C94A024909177
:10497000E302809589238093E302282F277071F446
:10498000282F082E000C330B9217130639F085954B
:10499000859585950E94BB220C94B224089590932E
:1049A000E7018093E6010895829590E09C01220F33
:1049B000331F220F331F2C7C9595879595958795EE
:1049C0008373282B30E0C901880F991F8A7A3595A7
:1049D00027952575822B089590E080E00E9467322C
:1049E00021E08C3E9E4F09F020E0822F089582E066
:1049F00090E00C94593283E090E00C945932CF93BC
:104A000084E090E00E945932C82F81E290E00E9439
:104A10005932982F8C2FCF910895CF93C92F682F9B
:104A200084E090E00E946D326C2F81E290E0CF91A3
:104A30000C946D32AB01BC018FE090E00C947F329E
:104A4000AB01BC0183E190E00C947F3260E070E048
:104A5000CB010C9420256CEE7EEF90E080E00E946C
:104A60008B3260E082E090E00E946D3260E083E093
:104A700090E00E946D321092DF021092E0021092DC
:104A8000E1021092E20260E084E090E00E946D3268
:104A900060E081E290E00E946D3260E085E090E0AD
:104AA0000E946D3260E086E090E00E946D326FEF10
:104AB00087E090E00E946D3240E050E0BA0188E06B
:104AC00090E00E947F3260E08DE090E00E946D32C5
:104AD00040E050E0BA0188E190E00E947F3260E05F
:104AE00087E190E00E946D3240E050E0BA018CE135
:104AF00090E00E947F3260E080E290E00E946D32A0
:104B00000C94F6050C942B25682F8EE090E00C9405
:104B10006D329C012E5F3F4FAC01485F5F4F80E0DC
:104B20002417350709F40895F90191919F019923FC
:104B3000B9F38F5FF5CF662349F0FC0132960896F2
:104B40002191261729F0E817F907D1F780E0089599
:104B500081E008959C01FC0132969FEF80E0419135
:104B6000461751F09F3F19F4411101C0982F8F5FF4
:104B70008630A9F79F3F09F40895290F311D97FD4D
:104B80003A95F90162830895FC01329608962191C5
:104B9000261303C0DF0111971C92E817F907B9F734
:104BA00008950C94AA250C94C425029626E0FC01D5
:104BB00011922A95E9F70895089508950C94DD253A
:104BC0000E94DE2580918303843049F11092F10226
:104BD00088E190E020E40FB6F894A89580936000F7
:104BE0000FBE2093600080E00E94D0060E94DE2568
:104BF00083B7817F846083BF83B7816083BF7894EC
:104C0000889583B78E7F83BF0FB6F894A89580915F
:104C10006000886180936000109260000FBE08956C
:104C20000895CF930E94DC250E940C0A0E94102652
:104C3000C0E08C2F0E94EE08811105C0CF5FCC3000
:104C4000C1F7CF91089581E0FCCF08950C942526FB
:104C50000E949D1E0E9483190E94D0060C94262655
:104C60001F921FB61F9211248F939F93AF93BF93F0
:104C70008091F102811113C08091790390917A03A0
:104C8000A0917B03B0917C034196A11DB11D80933F
:104C9000790390937A03A0937B03B0937C03BF9135
:104CA000AF919F918F911F901FBE1F90189582E02A
:104CB00084BD93E095BD9AEF97BD80936E000895F3
:104CC0002FB7F8948091790390917A03A0917B0398
:104CD000B0917C032FBF08959C014FB7F894809149
:104CE000790390917A03A0917B03B0917C034FBF2D
:104CF000821B930B089578941F921FB61F92112464
:104D00008F939F93AF93BF938091790390917A0390
:104D1000A0917B03B0917C030196A11DB11D8093EE
:104D2000790390937A03A0937B03B0937C03BF91A4
:104D3000AF919F918F911F901FBE1F90189587E78D
:104D400097E7909301088093000888E19AE00FB6F6
:104D5000F894A895809360000FBE90936000FFCFF9
:104D60000E94EC24811102C00E9482250E94F72437
:104D70008093F0020E94FF2490937E0380937D0332
:104D80000E94FB24682F70E090E080E00E943822AF
:104D90006091DB027091DC028091DD029091DE0275
:104DA0000C9472228091F80280FF12C0609133014E
:104DB00085E0689FB0011124759567957595679595
:104DC00060387105A8F561157105A1F1862F089568
:104DD00081FF09C06091330185E0689FB001112413
:104DE00075956795EDCF6091330182FD0AC0809182
:104DF000F7028823D1F09091320160913301891735
:104E000028F085E0689FB0011124DACF869FB001B9
:104E1000112485E0869F9001879F300D1124692F12
:104E200070E0C9010E948331CBCF65E070E0CECF46
:104E30008FE7089581E008958091F80280FF0CC00B
:104E400060912F0170E0759567957595679561156F
:104E5000710549F1862F089581FF06C060912F01E9
:104E600070E075956795F3CF60912F0182FD0BC0BF
:104E70009091F6029923A1F060912E0180912F016B
:104E8000961738F0682F70E06038710500F38FE7EF
:104E90000895899FC001112470E00E948331F4CFEE
:104EA00061E070E0D7CF81E00895803F31F40E9447
:104EB000D22681958093FC020895813F19F40E94C7
:104EC000D226F8CF823F31F40E94D226819580937A
:104ED000FB020895833F19F40E94D226F8CF893F40
:104EE00029F40E941C278093FD0208958A3F21F433
:104EF0000E941C278195F7CF8B3F31F40E941C271D
:104F000081958093FE0208958C3F19F40E941C271E
:104F1000F8CF843F31F48091FA0281608093FA02E5
:104F20000895853F21F48091FA028260F7CF863F91
:104F300021F48091FA028460F1CF873F21F48091BF
:104F4000FA028860EBCF883F21F48091FA028061F9
:104F5000E5CF8D3F31F48091F80281608093F802B3
:104F600008958E3F21F48091F8028260F7CF8F3F41
:104F7000B9F78091F8028460F1CF9091FB02803FF5
:104F800059F48091FC0287FF0DC01092FC02911130
:104F90000BC01092F70208C0813F81F48091FC029F
:104FA00018169CF3992381F08091FD029091FE02E6
:104FB000892B09F064C01092F6020895823F49F4EB
:104FC00097FFF0CF1092FB028091FC028111ECCF91
:104FD000E0CF833F19F41916ACF3E4CF2091FD0222
:104FE000893F29F41216F4F61092FD02DBCF8A3FB6
:104FF00019F427FFD7CFF8CF2091FE028B3F29F479
:1050000027FFD0CF1092FE02CDCF8C3F19F412169D
:10501000CCF3C8CF843F31F48091FA028E7F809325
:10502000FA02C0CF853F21F48091FA028D7FF7CF3D
:10503000863F21F48091FA028B7FF1CF873F21F4E4
:105040008091FA02877FEBCF883F21F48091FA02AA
:105050008F7EE5CF8D3F31F48091F8028E7F809373
:10506000F802A0CF8E3F21F48091F8028D7FF7CF18
:105070008F3F09F097CF8091F8028B7FF0CF089592
:105080008091F00283FF7EC083E298E00E94540585
:105090008091FA021F928F938EE198E09F938F93F5
:1050A0000E94ED058CE198E00E9454058091FB027E
:1050B000282F082E000C330B3F938F9389E198E043
:1050C0009F938F930E94ED0587E198E00E9454051D
:1050D0008091FC02282F082E000C330B3F938F93F6
:1050E00084E198E09F938F930E94ED0582E198E020
:1050F0000E9454058091FD02282F082E000C330BCE
:105100003F938F938FE098E09F938F930E94ED05DC
:105110008DE098E00E9454058091FE02282F082E11
:10512000000C330B3F938F938AE098E09F938F930B
:105130000E94ED0587E098E00E9454058091F702F7
:105140001F928F9384E098E09F938F930E94ED05C8
:1051500082E098E00E9454058091F8021F928F939C
:105160008FEF97E09F938F930E94ED058CEF97E070
:105170000E9454058DB79EB74C960FB6F8949EBF0B
:105180000FBE8DBF0E9460269C019091FB02809112
:10519000FC02982B21F03093F5022093F4029091B9
:1051A000FD028091FE02982B21F03093F3022093B0
:1051B000F20289EF92E00C94DB19EF92FF920F93C9
:1051C0001F93CF93DF9300D000D000D0CDB7DEB7D0
:1051D00086E0E9EFF2E0DE01119601900D928A95EA
:1051E000E1F7E090FB02F090FC020091FD021091CB
:1051F000FE021092FB021092FC021092FD0210922D
:10520000FE028E2D8F2991F08091F4029091F5028B
:105210000E946C26AC019091F702992309F43FC0DB
:10522000809134018417150608F447C0802F812B24
:1052300091F08091F2029091F3020E946C26AC01F1
:105240009091F602992309F477C080913001841778
:10525000150608F47FC08091FB029091FC02892B17
:105260009091FD02892B9091FE02892B11F00E94F2
:10527000402886E0FE013196A9EFB2E001900D9240
:105280008A95E1F726960FB6F894DEBF0FBECDBF24
:10529000DF91CF911F910F91FF90EF900895209192
:1052A00035018AE0289F900111242417350708F062
:1052B000BDCF9F5F9093F70202C09F3FD1F7EE20D2
:1052C00059F00E94D2269FEF1E140CF491E0899FA2
:1052D000802D11248093FB02FF2059F00E94D226DA
:1052E0009FEF1F140CF491E0899F802D112480936F
:1052F000FC023091FB02332309F498CF2091FC0289
:10530000222309F493CF45EB3403C00111249923E0
:1053100059F09093FB0245EB2403900111243323B1
:1053200039F03093FC0282CF81E08093FB02F3CF0F
:1053300081E08093FC027ACF209131018AE0289F9E
:10534000900111242417350708F085CF9F5F9093B3
:10535000F60202C09F3FD1F7002359F00E941C279C
:105360009FEF10160CF491E0899F802D11248093FB
:10537000FD02112359F00E941C279FEF11160CF417
:1053800091E0899F802D11248093FE023091FD02CF
:10539000332309F460CF2091FE02222309F45BCF6E
:1053A00045EB3403C0011124992359F09093FD0279
:1053B00045EB240390011124332339F03093FE028E
:1053C0004ACF81E08093FD02F3CF81E08093FE021B
:1053D00042CF86E0E9EFF2E0DF011D928A95E9F71E
:1053E0001092F7021092F6021092F802089580913E
:1053F0000A0308959FB7F894109201039FBF9091FC
:105400008303943009F048C02091E9002F70309157
:10541000EC00932F917030FD90E8922B23E02093C5
:10542000E9002091EB0020FF34C02091EE0027FF1F
:1054300030C02091FF02222321F02091E80025FFB7
:1054400028C01092FF0226E03091E80035FF14C01A
:105450008093F1008091E80085FD27C08091E800ED
:1054600080FFFCCF8091E8008E778093E8009F70EA
:105470009093E90080E0089530918303343049F43B
:105480003091EB0035FD05C0215041F481E080935F
:10549000FF029F709093E9008FEF0895EFE9FFE01E
:1054A0003197F1F700C00000CFCF8FB7F89421E01B
:1054B000209301038FBFDBCFCF93DF9300D00F92F8
:1054C000CDB7DEB790918303943019F589837B8340
:1054D0006A8382E08093E9008FEF9091E800815029
:1054E00095FD06C095ED9A95F1F700008111F5CF75
:1054F0008091E80085FF0DC050E040E063E070E07F
:10550000CE0101960E94D32C8091E8008E77809383
:10551000E8000F900F900F90DF91CF910895BC019C
:1055200084E00C945C2ABC0183E00C945C2A9C010E
:1055300082E08093E9009FEF8091E800915085FD23
:1055400006C085ED8A95F1F700009111F5CF8091A5
:10555000E80085FF0CC050E040E066E070E0C90163
:105560000E94D32C8091E8008E778093E800089504
:10557000CF93DF93EC0181E08093E9008FEF90916E
:10558000E800815095FD06C095ED9A95F1F7000071
:105590008111F5CF8091E80085FF14C050E040E014
:1055A00068E070E0CE010E94D32C8091E8008E77F5
:1055B0008093E80088E0FE01A2E0B3E001900D9244
:1055C0008A95E1F7DF91CF9108958BE698E00E94EC
:1055D000540580918203811109C00E94632E0E94AC
:1055E000C02E8091E20084608093E200089587E6F7
:1055F00098E00E94540510928203089583E698E093
:105600000C9454058FE598E00C9454058BE598E0D4
:105610000E9454050C942826209100032F5F822FAE
:1056200062E30E946331992319F0209300030895E7
:1056300010920003809101038823F1F0809183038D
:105640008430C1F49091E9009F702091EC00822F8A
:10565000817020FD80E8892B93E09093E900909180
:10566000EB0090FF04C09091EE0097FD08C08F7092
:105670008093E9001092010308951092F100909137
:10568000E80095FDFACF9091E80090FFF0CF90915F
:10569000E8009E779093E800EACF42E061EC81E079
:1056A0000E94DF2D42E261EC82E00E94DF2D42E2A7
:1056B00061EC83E00C94DF2D80918503833009F445
:1056C0005FC030F48130C1F1823009F49BC008958D
:1056D0008A3009F487C08B3009F46DC0893009F035
:1056E0004EC080918403813209F049C080918803C3
:1056F00090918903029708F042C08091E800877F6B
:105700008093E8008091E80082FF35C09091F3001B
:105710008091F200029729F48091F1008B7F813013
:1057200021F48091F10080930A038091E8008B7747
:105730008093E8000C94132E80918403813AF9F44D
:105740008091E800877F8093E800809188039091A2
:105750008903892B61F468E082E093E070E00E94A5
:10576000222D8091E8008B778093E800089560E017
:1057700090E080E0F3CF809183038111C3CF08953F
:1057800080918403813AD9F78091880390918903AD
:10579000892BA9F78091E800877F8093E8008091AA
:1057A000E80080FFFCCF809140018093F100809160
:1057B000E8008E77BDCF80918403813201F780911C
:1057C000880390918903892BD1F68091E800877F27
:1057D0008093E8000E94132E8091860380934001FD
:1057E0000C949D1E80918403813249F68091E800DB
:1057F000877F8093E8000E94132E80918703809317
:105800000B03089580918403813A09F0B8CF809109
:10581000E800877F8093E8008091E80080FFFCCF5C
:1058200080910B03C2CF84B7877F84BF0FB6F894F3
:10583000A89580916000886180936000109260005C
:105840000FBE80E890E00FB6F894809361009093CB
:1058500061000FBE0E94231A0E94632E0E94C02E78
:105860008091E20084608093E2008AEF99E20E94D6
:10587000CF2478940E9448310E942B1A86E391E04D
:105880000E947E198AE498E00E9454058091830367
:10589000853019F00E945D1AF9CF86E498E00E94E5
:1058A00054050E94E02580918103882379F30E94AA
:1058B0001126882359F30E94BD2CE8CF0C94602C4C
:1058C000292F33272330310521F168F421303105A8
:1058D00009F449C02230310509F44AC090E080E063
:1058E00030E020E029C02132310581F1223231053A
:1058F000A9F76330710590F7FB01EE0FFF1FE75228
:10590000FE4F208131816A527E4FFB01808190E001
:1059100013C099278130910599F0009741F08230AA
:10592000910589F00397D1F6EFE6F8E002C0E9EAC5
:10593000F8E0849190E09F01FA013183208308957B
:10594000E9E9F8E0F6CFE5E7F8E0F3CF6330710579
:1059500028F6660F771FFB01E152FE4F208131814F
:1059600089E090E0E9CF82E190E028E039E0E4CFFF
:105970008BE590E02DEA38E0DFCF80E189BD82E160
:1059800089BD09B400FEFDCF8091D8008F7D809342
:10599000D8008091E00082608093E0008091E00078
:1059A00081FDFCCF0895AF92BF92CF92DF92FF921C
:1059B0000F931F93CF93DF936C01EB018A010E9439
:1059C000322EF82E811123C00115110539F0F8018E
:1059D00080819181C81BD90BC80ED91EB12CA12C76
:1059E0002097A9F08091E80085FD22C08091E80011
:1059F0008E778093E80001151105A1F0F8018081F0
:105A00009181A80EB91EB182A08285E0F82E8F2D5B
:105A1000DF91CF911F910F91FF90DF90CF90BF90BA
:105A2000AF9008950E94322E8823D1F2F82EEFCF46
:105A3000F60181916F018093F1002197FFEFAF1A7A
:105A4000BF0ACECFFC0180918A0390918B03861709
:105A50009707A0F06115710529F49091E8009E77F1
:105A60009093E80090E06115710551F4911108C020
:105A70008091E80082FF34C080E00895BC01F2CF3D
:105A8000809183038823C1F18530C1F18091E800C2
:105A900083FD30C08091E80082FDEACF8091E8006C
:105AA00080FFE1CF8091F3002091F200382F611543
:105AB000710519F02830310558F091E02830310592
:105AC00009F090E02091E8002E772093E800CBCFFA
:105AD00081918093F100615071092F5F3F4FE7CFB3
